:020000040800F2
:1000000010150020A52F0008290200082B02000867
:100010002F02000833020008370200080000000029
:100020000000000000000000000000003B0200088B
:100030003D020008000000003F02000841020008E5
:10004000BF2F0008BF2F0008BF2F0008BF2F0008D8
:10005000BF2F0008BF2F0008BF2F0008BF2F0008C8
:10006000BF2F0008BF2F0008BF2F0008BF2F0008B8
:10007000BF2F0008BF2F0008BF2F0008BF2F0008A8
:10008000BF2F0008BF2F0008BF2F0008BF2F000898
:10009000BF2F0008BF2F0008BF2F0008BF2F000888
:1000A000BF2F0008BF2F0008BF2F0008BF2F000878
:1000B000BF2F0008BF2F0008BF2F0008BF2F000868
:1000C000BF2F0008BF2F0008BF2F0008BF2F000858
:1000D000BF2F0008352F0008BF2F0008BF2F0008D2
:1000E000BF2F0008BF2F0008BF2F0008BF2F000838
:1000F000BF2F0008BF2F0008BF2F0008BF2F000828
:10010000BF2F0008BF2F0008BF2F0008BF2F000817
:10011000BF2F0008BF2F0008BF2F0008BF2F000807
:10012000BF2F0008BF2F0008BF2F0008BF2F0008F7
:10013000BF2F0008BF2F0008BF2F0008BF2F0008E7
:10014000BF2F0008BF2F0008BF2F0008BF2F0008D7
:10015000BF2F0008BF2F0008BF2F0008BF2F0008C7
:10016000BF2F0008BF2F0008BF2F0008BF2F0008B7
:10017000BF2F0008BF2F0008BF2F0008BF2F0008A7
:10018000BF2F0008BF2F0008DFF80CD004F02AFEB4
:10019000004800479D010008101500200024A820F9
:1001A00002F086FD4FF4165002F011FE00F0FDF94A
:1001B00000F0CEFB142002F0DDFD00F0FDFD00F0AC
:1001C00023FC00F07CFF142002F0D4FD01F082F942
:1001D0000A2002F0CFFD01F0CEFE0A2002F0CAFD97
:1001E00000F04CFC0A2002F0C5FD00BF10E04FF407
:1001F00080410C4803F05AF8012002F0BBFD4FF497
:100200008041084803F054F8012002F0B3FD641C5B
:10021000B4F5C87FEBDD00BF02F05FFA01E000F04B
:10022000ADF9FCE700040240704700BFFEE700BFE5
:10023000FEE700BFFEE700BFFEE77047704770476C
:10024000704700000CB500200190009076480068CF
:1002500040F480307449086000BF7348006800F4BF
:10026000003000900198401C0190009818B9019846
:10027000B0F5A04FF1D16C48006800F4003010B127
:100280000120009001E0002000900098012846D154
:1002900065484030006840F0805063494031086054
:1002A0006248006840F44040604908605E48083099
:1002B00000685D49083108600846006840F4004065
:1002C00008600846006840F4A05008605848091FBC
:1002D0000860081F006840F08070091F086000BFB8
:1002E0005148006800F000700028F9D040F2057015
:1002F000504908604C480830006820F003004A4923
:10030000083108600846006840F00200086000BF3D
:1003100045480830006800F00C000828F8D10CBDF2
:1003200010B54548006840F47000434908603E48F5
:10033000006840F001003C49086000203A4908315B
:100340000860394800683D490840374908603C4822
:10035000091D0860081F006820F48020091F08603C
:10036000002031490C310860FFF76CFF4FF000604E
:1003700031498039086010BD70B500200022022389
:1003800000240221284D08352D6805F00C0020B10D
:10039000042806D0082834D107E02A4D2A4E3560BB
:1003A00033E02A4D284E35602FE01F4D2D1D2D685E
:1003B000C5F380541C4D2D1D2D6805F03F0154B12F
:1003C000224DB5FBF1F5184E361D3668C6F388167A
:1003D00005FB06F209E01B4DB5FBF1F5124E361D8B
:1003E0003668C6F3881605FB06F20F4D2D1D2D68E5
:1003F000C5F301456D1C6B00B2FBF3F5124E356081
:1004000003E0104D104E356000BF00BF064D0835AB
:100410002D68C5F303150E4E705D0B4D2D68C5405C
:10042000094E356070BD0000003802400070004089
:1004300008544007003C024088ED00E0FFFFF6FE54
:10044000103000240024F4000000002000127A0084
:1004500004000020002074490870704770B50446FD
:100460007148007800EB4000704901EB400010F843
:1004700014506D48007800EB400001EB400000EBA9
:100480004400467826B1012E1CD0022E5AD13AE003
:1004900067A004F00BFD6BA20321012000F09CF982
:1004A00001F027F94FF480416B4802F0FFFE4FF452
:1004B00080716A4802F0FCFE4FF40041664802F089
:1004C000F7FE57E066A004F0F1FC6BA203210120C7
:1004D00000F082F902F0D2FB01F021FE4FF48041DE
:1004E0006B4802F0E5FE4FF400415B4802F0DEFE8F
:1004F0004FF48071594802F0DBFE4FF480415648BA
:1005000002F0D6FE36E063A004F0D0FC67A203211F
:10051000012000F061F900F0E3FD4FF480415C48F8
:1005200002F0C6FE4FF480714C4802F0BFFE4FF45B
:100530008041494802F0BCFE4FF40041464802F0B9
:10054000B7FE17E04FF48071444802F0B1FE4FF45B
:100550008041414802F0ACFE4FF400413E4802F0B9
:10056000A7FE57A004F0A2FC5AA20321012000F02C
:1005700033F900BF00BF2C48057070BD10B50020D6
:10058000FFF76CFF4FF4AF7002F0F4FB0120FFF7B0
:1005900065FF4FF4AF7002F0EDFB0220FFF75EFF46
:1005A0004FF4AF7002F0E6FB10BD1CB50121042032
:1005B00003F0C8FA0121082003F0C4FA01208DF8E5
:1005C000040000208DF8060001208DF807000220AD
:1005D0008DF80500C00100906946204802F0EAFD50
:1005E00001208DF8040000208DF8060001208DF810
:1005F000070002208DF805004FF440400090694646
:10060000154802F0D7FD4FF48071144802F050FEF7
:100610004FF48041104802F04BFE4FF400410E4869
:1006200002F046FE1CBD704726000020140000208A
:100630005475726E206F6E20726564206C696768F5
:10064000740D0A005475726E206F6E2072656420FE
:100650006C69676874000000000C024000080240EA
:100660005475726E206F6E2079656C6C6F77206C9C
:10067000696768740D0A00005475726E206F6E20F1
:1006800079656C6C6F77206C696768740000000096
:10069000000402405475726E206F6E2067726565AB
:1006A0006E206C696768740D0A0000005475726EE4
:1006B000206F6E20677265656E206C6967687400D4
:1006C000496E76616C696420616374696F6E0D0AAE
:1006D00000000000496E76616C6964206163746992
:1006E0006F6E000010B500F055FD10BD38B5044622
:1006F000002000908DF8014002226946782000F029
:10070000A5FD38BD38B50446BDA0006800908DF841
:10071000014002226946782000F098FD38BD70B58E
:1007200005460C4645F0B000FFF7E0FF102141EA16
:100730001410FFF7DBFF04F00F00FFF7D7FF70BDC9
:1007400070B500240EE000212046FFF7E8FF0025E9
:1007500004E00020FFF7D6FF681CC5B2802DF8DB4F
:10076000601CC4B2082CEEDB70BD2DE9F0410546DB
:100770000E461746721ED206110E6A1E5206100E43
:10078000FFF7CDFF002409E0A7F120019D4A02EB0D
:100790000111085DFFF7B6FF601CC4B2082CF3DB43
:1007A000721ED206110E6A1E012303EB4202D0B262
:1007B000FFF7B5FF00240BE0A7F12001914A02EBFF
:1007C000011204F10801505CFFF79CFF601CC4B2E9
:1007D000082CF1DBBDE8F0812DE9F04107460E461B
:1007E0001546002407E02A5D3019C1B23846FFF7EC
:1007F000BCFF601CC4B2285D0028F4D1BDE8F081C4
:1008000010B50246012000E050430B00A1F10101A8
:10081000FAD110BD2DE9F04780460E4617461D4619
:10082000002415E0281B411E0A20FFF7E9FFB7FB53
:10083000F0F00A21B0FBF1F201FB120000F13009E7
:100840003019C1B24A464046FFF78FFF601CC4B260
:10085000AC42E7DBBDE8F0872DE9F04781468846EA
:1008600015461E46002D06DB2B2241464846FFF763
:100870007CFF2F4605E02D2241464846FFF775FFD5
:100880006F42002417E0301B411E0A20FFF7B8FF1B
:10089000B7FBF0F00A21B0FBF1F201FB120000F10E
:1008A000300A08EB0400401CC1B252464846FFF72C
:1008B0005CFF601CC4B2B442E5DBBDE8F0872DE903
:1008C000F04781460E4690461F4600241DE0381B27
:1008D000411E1020FFF794FFB8FBF0F000F00F0569
:1008E0000A2D08DA05F13000C2B23019C1B248460B
:1008F000FFF73BFF07E005F13700C2B23019C1B284
:100900004846FFF732FF601CC4B2BC42DFDBBDE8E3
:10091000F0872DE9F04780460E4617461D46002415
:1009200012E0281B411E0220FFF76AFFB7FBF0F020
:1009300000F0010000F130093019C1B24A464046CA
:10094000FFF713FF601CC4B2AC42EADBBDE8F087DE
:1009500070B5002406E0002500E06D1CB5F57A7F37
:10096000FBD3641CB4F57A7FF5D3FFF7BBFEAE2052
:10097000FFF7BCFED520FFF7B9FE8020FFF7B6FEDB
:10098000A820FFF7B3FE3F20FFF7B0FED320FFF70C
:10099000ADFE0020FFF7AAFE4020FFF7A7FEA12032
:1009A000FFF7A4FEC820FFF7A1FEDA20FFF79EFEA6
:1009B0001220FFF79BFE8120FFF798FECF20FFF764
:1009C00095FED920FFF792FEF120FFF78FFEDB2086
:1009D000FFF78CFE3020FFF789FEA420FFF786FE8C
:1009E000A620FFF783FE8D20FFF780FE1420FFF77F
:1009F0007DFEAF20FFF77AFEFFF7A2FE70BD00007C
:100A0000400000001C6B00081CB50121022003F00F
:100A100099F801208DF8040000208DF806000120CF
:100A20008DF8070002208DF805004003009069460C
:100A3000014802F0BFFB1CBD0004024010B50024B9
:100A40000020D4490860902000F052FF002000F000
:100A50004FFF002000F04CFF002000F049FFFF2076
:100A600000F046FF44EA0024FF2000F041FF044369
:100A70000120C949C1F88402204610BD1CB50121DE
:100A8000042003F05FF80220009001208DF804009C
:100A900000208DF8060003208DF8050001208DF858
:100AA00007006946BD4802F085FB0120B94908608E
:100AB00000F037FF002000F0A8FFFFF7BFFFB849A4
:100AC000088008460188B7A004F0F0F90223B44872
:100AD00002880D211846FFF7F2FE1CBD10B5002458
:100AE0000020AC490860052000F002FFFF2000F064
:100AF000FFFE04460120A849C1F88402204610BD2B
:100B000010B504460020A3490860012000F0F0FE63
:100B1000204600F0EDFE01209F49C1F8840210BD7F
:100B200010B500209B490860062000F0E1FE01207E
:100B30009949C1F8840210BD10B50020954908609C
:100B4000042000F0D5FE01209349C1F8840210BDB5
:100B50002DE9F04106460C46174600208D490860F5
:100B6000032000F0C5FEC4F3074000F0C1FEC4F34B
:100B7000072000F0BDFEE0B200F0BAFE002505E05F
:100B8000FF2000F0B5FE7055681C85B2BD42F7DB52
:100B9000012080490860BDE8F08110B500BFFFF773
:100BA0009DFF00F001000028F9D110BD2DE9F041B2
:100BB00006460C461746FFF7B3FF0020754908604C
:100BC000022000F095FEC4F3074000F091FEC4F34C
:100BD000072000F08DFEE0B200F08AFE002504E060
:100BE000705D00F085FE681C85B2BD42F8DB012017
:100BF00068490860FFF7D1FFBDE8F0812DE9F041B9
:100C000007460E461446F0B2C0F58075AC4200DCD3
:100C1000254612E02A4631463846FFF7C7FFAC4268
:100C200000D10BE02F442E44601B84B2B4F5807FCA
:100C300002DD4FF4807500E02546EBE700BFBDE81C
:100C4000F08110B504462403FFF76AFFFFF7A5FF04
:100C5000002050490860202000F04AFEC4F30740FD
:100C600000F046FEC4F3072000F042FEE0B200F0C0
:100C70003FFE01204849C1F88402FFF78EFF10BDF6
:100C80002DE9F05F81460F461646DFF828B14FEA9E
:100C90001738C7F30B0ACAF58054A64200DC344665
:100CA00044E04FEA08314FF480525846FFF750FFB6
:100CB000002508E00AEB05001BF80000FF2800D023
:100CC00003E0681C85B2A542F4DB00BFA54216DA3A
:100CD0004046FFF7B6FF002507E019F8050005EBD1
:100CE0000A010BF80100681C85B2A542F5DB4FEA4A
:100CF00008314FF480525846FFF780FF04E0224647
:100D000039464846FFF77AFFA64200D10FE008F1C6
:100D100001084FF0000AA1442744301B86B2B6F503
:100D2000805F02DD4FF4805400E03446B9E700BF35
:100D3000BDE8F09F10B5FFF7F3FEFFF72EFF002090
:100D400014490860C72000F0D3FD01201249C1F802
:100D50008402FFF722FF10BD10B500200D49086086
:100D6000B92000F0C5FD01200B49C1F88402032021
:100D700001F0B8FF10BD10B5002006490860AB2097
:100D800000F0B6FD01200449C1F88402032001F0FF
:100D9000A9FF10BD84024142000041420008024008
:100DA00028000020573235513132385F69643A25C6
:100DB000780D0A008C0000201CB50121022002F0F1
:100DC000C1FE4FF44060009001208DF80400002027
:100DD0008DF806008DF8070002208DF805006946A1
:100DE000E34802F0E7F91CBD10B5E148006820F4C3
:100DF0004000DF4908600846006840F48000086051
:100E00000120DC490860DC49C1F8A8020A2001F091
:100E100069FF0020D74908600A2001F063FF002025
:100E2000D549C1F8A80210BD10B5D148006820F41A
:100E30004000CF4908600846006840F48000086020
:100E40000020CC49091F0860CB49C1F8AC020A2038
:100E500001F048FF0120C749091F0860C649C1F8D1
:100E6000AC020A2001F03EFF10BD10B500240120A5
:100E7000C04908600A2001F035FFBD48006820F431
:100E80004000BB4908600846006808600120BA4974
:100E9000C1F8A8020A2001F025FF05E0601CC4B2D9
:100EA000FA2C01DD012010BDB2488038006800280E
:100EB000F4D1B049091F086000BFF4E710B5002065
:100EC000AC49091F0860AA48006820F44000A849FE
:100ED00008600846006840F4800008600020A649C9
:100EE000C1F8AC020A2001F0FDFE0120A149091F52
:100EF00008600A2001F0F6FE00209F49C1F8A80210
:100F000010BD10B500209B49091F08609848006873
:100F100020F44000964908600846006840F48000CC
:100F2000086001209449C1F8AC020A2001F0DAFE01
:100F300001209049091F08600A2001F0D3FE00201B
:100F40008D49C1F8A80210BD70B5044688480068F4
:100F500020F44000864908600846006840F480009C
:100F6000086000208349091F086000251DE0E00992
:100F700018B101207F49086002E000207D49086027
:100F80006006040E0A2001F0ADFE01207949091F18
:100F900008600A2001F0A6FE00207749C1F8A802E7
:100FA0000A2001F09FFE681CC5B2082DDFDB70BD72
:100FB00070B500246E48006820F440006C49086059
:100FC000084600680860002517E000206949091FED
:100FD00008600A2001F086FE01206749C1F8A802D6
:100FE0006006040E63488038006808B1601CC4B213
:100FF0000A2001F077FE681CC5B2082DE5DB20460B
:1010000070BD70B505460C46FFF7EEFE3C20FFF7BD
:101010009BFFFFF72AFF2846FFF796FFFFF725FF04
:101020002046FFF791FFFFF720FFFFF7FDFE70BDA1
:1010300070B50446FFF7D8FE3C20FFF785FFFFF7A9
:1010400014FF2046FFF780FFFFF70FFFFFF7ECFECE
:10105000FFF7CAFE3D20FFF777FFFFF706FFFFF718
:10106000A7FF0546FFF74DFFFFF7DEFE284670BDE0
:1010700070B504460320FFF7DBFF05460420FFF7A9
:10108000D7FF00EB052000B224F8020B0520FFF784
:10109000CFFF05460620FFF7CBFF00EB052000B28F
:1010A00024F8020B0720FFF7C3FF05460820FFF7CF
:1010B000BFFF00EB052000B224F8020B70BD10B595
:1010C00014210020FFF79DFF80210120FFF799FFE9
:1010D00000210220FFF795FF0A2001F04BFE10BD12
:1010E00010B52DED088B2548FFF7C2FF2349B1F954
:1010F000000003F09FFC41EC1A0B2049B1F90400F9
:1011000003F098FC41EC1B0BB0EE4A1AF0EE6A1AA1
:10111000B0EE4B0AF0EE6B0A04F05EF8B0EE409AC7
:10112000F0EE609A9FED160B53EC102B51EC190B5F
:1011300003F09FFB41EC180B9FED130B53EC102BAE
:1011400003F0F0FA124A03C2C82001F013FE10485F
:1011500090ED000B51EC100B03F08AFC04460223C7
:10116000224601210320FFF777FBBDEC088B10BD61
:1011700000040240AC824042008040423000002027
:10118000775AF01ADCA54C40000000000080664051
:101190003800002000B587B00121022002F0D2FC07
:1011A0000121480502F017FDC020059002208DF8AE
:1011B00018008DF8190001208DF81A0000208DF814
:1011C0001B0005A94E4801F0F5FF042206214C48FA
:1011D00002F07BF804220721494802F076F800204B
:1011E000ADF808004BF6FF70ADF80A000020ADF82E
:1011F0000C004FF48060ADF80E000001ADF8100057
:101200004048019001A9404803F059F801213E48A7
:1012100003F0D1F807B000BD10B501213A4803F042
:10122000EDF800BF3949384803F0E0F90028F9D05B
:1012300010BD10B50121344803F0ECF800BF34496B
:10124000314803F0F5F90028F9D110BD2DE9F0413E
:1012500005460F461646FFF7DFFF002229462A48BB
:1012600003F0E4F800BF2B49274803F0BFF900283A
:10127000F9D000240DE0395D234803F05BF900BF8D
:101280002449891C204803F0B1F90028F8D0601CDB
:10129000C4B2B442EFDBFFF7CCFFBDE8F0812DE92B
:1012A000F04106460F461546FFF7B6FF01223146CC
:1012B000154803F0BBF800BF1449491C124803F05D
:1012C00095F90028F8D0002414E0681EA04203D14C
:1012D00000210D4803F0B2F800BF0C493F310A4825
:1012E00003F084F90028F8D0074803F025F93855B1
:1012F000601CC4B2AC42E8DBFFF79BFFBDE8F081A5
:1013000000040240A08601000054004001000300D8
:1013100010000010820007001CB50121102002F00F
:1013200011FC4FF48470009001208DF8040000201F
:101330008DF8060003208DF8050001208DF80700C8
:101340006946F44801F036FF4FF4807000900020A9
:101350008DF8040003208DF8050002208DF80700A9
:101360006946EC4801F026FF0120EB4908601CBDEE
:101370002DE9F04705460E4617464FF00009C846CE
:1013800000240020E449086045F08008404600F051
:1013900007FA814600BF05E0FF2000F001FA305552
:1013A000601CC4B2BC42F7DB0120DB4908600020AE
:1013B000BDE8F0872DE9F04104460D4600260027E0
:1013C0000020D549086004F07F06304600F0E8F9B7
:1013D00007462E46304600F0E3F907460120CF4984
:1013E000C1F88C020020BDE8F08170B504460025EC
:1013F00000260020C849086044F08005284600F017
:10140000CFF90646FF2000F0CBF906460120C3497C
:10141000C1F88C02304670BD10B5044634B1082CBA
:101420000AD0102C0ED0182C18D111E09FEDBC0A58
:10143000BC4880ED000A18E09FEDBB0AB94880ED7A
:10144000000A12E09FEDB90AB64880ED000A0CE0F0
:101450009FEDB70AB34880ED000A06E018249FED1F
:10146000B50AB04880ED000A00BF00BF21461B202E
:10147000FFF7A0FF10BD10B5044634B1082C0AD008
:10148000102C0ED0182C18D111E09FEDAB0AAB48F0
:1014900080ED000A18E09FEDAA0AA84880ED000A36
:1014A00012E09FEDA80AA54880ED000A0CE09FED30
:1014B000A60AA24880ED000A06E010249FEDA10ACA
:1014C0009E4880ED000A00BF00BF21461C20FFF7A8
:1014D00071FF10BD10B5FFF71FFF00F07AF98021F2
:1014E0006B20FFF767FF20B198A003F0DFFC01201D
:1014F00010BD192001F03EFC7520FFF776FF9949D9
:1015000008700846017898A003F0D0FC02239548A3
:10151000027804211846FFF7D2F9192001F02AFCBD
:1015200001216B20FFF746FF192001F023FC002169
:101530001920FFF73FFF04211A20FFF73BFF04218A
:101540001D20FFF737FF1020FFF795FF1820FFF74A
:1015500063FF642001F00EFC88A003F0A7FC0020CC
:10156000C6E71CB50446062269463B20FFF700FF8C
:1015700008B101201CBD9DF801009DF8001000EB92
:10158000012000B220809DF803009DF8021000EBBE
:10159000012000B260809DF805009DF8041000EB6A
:1015A000012000B2A0800020E4E71CB5044606221A
:1015B00069464320FFF7DCFE08B101201CBD9DF801
:1015C00001009DF8001000EB012000B220809DF882
:1015D00003009DF8021000EB012000B260809DF82E
:1015E00005009DF8041000EB012000B2A08000204F
:1015F000E4E71CB504466846FFF7D7FF08B10120B1
:101600001CBDBDF9000000EE100AB8EEC00A454846
:10161000D0ED000A20EE200A84ED000ABDF9020098
:1016200000EE100AB8EEC00A3E48D0ED000A20EEE7
:10163000200A84ED010ABDF9040000EE100AB8EE9C
:10164000C00A3848D0ED000A20EE200A84ED020AD4
:101650000020D5E71CB504466846FFF782FF08B1B5
:1016600001201CBDBDF9000000EE100AB8EEC00A52
:101670003248D0ED000A20EE200A84ED000ABDF9C0
:10168000020000EE100AB8EEC00A2C48D0ED000AA5
:1016900020EE200A84ED010ABDF9040000EE100AD4
:1016A000B8EEC00A2548D0ED000A20EE200A84EDED
:1016B000020A0020D5E738B5022269464120FFF72B
:1016C00057FE10B19FED330A38BD9DF801009DF81B
:1016D000001000EB012004B200EE104AF8EEC00A40
:1016E0009FED2D1A80EE810AF3EE090A30EE200AF2
:1016F000EAE710B52948FFF77CFF284890ED010A7A
:10170000BDEEC00A10EE102A022308210320FFF7C5
:10171000A3F810BD001002408C0242420000424279
:10172000F501FA3B44000020F5017A3CF501FA3C52
:1017300090C1793DF5017A3D29488038400000206C
:1017400000000039000080390000003A69636D5FD5
:101750003230363032207265736574206661696C90
:101760000D0A00004800002069636D5F323036309A
:10177000322069643D25780D0A00000069636D32EE
:101780003036303220696E697420706173730D0ACF
:101790000D0A0000000000006666A3438C100020C4
:1017A00010B5044600BF02214E4802F02FFD00286C
:1017B000F9D021464B4802F0E0FC00BF0121494826
:1017C00002F024FD0028F9D0464802F0D3FCC0B254
:1017D00010BD00B587B00121084602F0B3F9012120
:1017E000022002F0AFF90121102002F0ABF9012133
:1017F000080302F001FA1020059002208DF818006D
:1018000000208DF81A0003208DF8190001208DF8B2
:101810001B0005A9344801F0CDFCA0200590022052
:101820008DF8180000208DF81A0003208DF819009B
:1018300001208DF81B0005A92C4801F0BBFC0522F6
:101840000421294801F041FD05220721274801F024
:101850003CFD05221146254801F037FD0121080312
:1018600002F01FFA00214FF4805002F01AFA002013
:10187000ADF800004FF48270ADF802000020ADF822
:1018800004000220ADF806000120ADF80800400277
:10189000ADF80A002020ADF80C000020ADF80E00D5
:1018A0000720ADF8100069460E4802F0EBFA01215E
:1018B0000C4802F0E1FBFF20FFF772FF07B000BD0C
:1018C00010B50446074800884FF6C771084005491F
:1018D000088008460088204308800121014802F062
:1018E000CBFB10BD0030014000040240000002406C
:1018F00010B5044600BF02214D4802F087FC0028C5
:10190000F9D021464A4802F038FC00BF012148487E
:1019100002F07CFC0028F9D0454802F02BFCC0B254
:1019200010BD00B587B00121022002F00BF90121A2
:10193000042002F007F90121880302F04CF94FF46A
:101940000050059002208DF8180000208DF81A0034
:1019500003208DF8190001208DF81B0005A93548DA
:1019600001F028FC0C20059002208DF818000020C2
:101970008DF81A0003208DF8190001208DF81B0046
:1019800005A92D4801F016FC05220D21294801F07A
:101990009CFC05220221284801F097FC0522032126
:1019A000254801F092FC0121880302F069F9002129
:1019B0004FF4804002F064F90020ADF800004FF4CD
:1019C0008270ADF802000020ADF804000220ADF8EE
:1019D00006000120ADF808004002ADF80A003820EA
:1019E000ADF80C000020ADF80E000720ADF8100097
:1019F00069460F4802F046FA01210D4802F03CFB0F
:101A0000FF20FFF775FF07B000BD10B5044608487A
:101A100000884FF6C77108400549088008460088CD
:101A2000204308800121024802F026FB10BD00007F
:101A30000038004000040240000802401CB50121AB
:101A4000022002F07FF80121042002F07BF801213E
:101A5000102002F077F81020009001208DF804008B
:101A600000208DF8060003208DF8050001208DF878
:101A700007006946FD4801F09DFB012000908DF8AC
:101A8000040000208DF8060003208DF805000120D9
:101A90008DF807006946F64801F08CFB8020009025
:101AA00000208DF8040003208DF8050001208DF83A
:101AB00007006946EF4801F07DFB022000900020FE
:101AC0008DF8040003208DF8050001208DF8070033
:101AD0006946E74801F06EFB0120E7490860E749E5
:101AE000C1F880021CBD2DE9F04104460D460020DE
:101AF000E1490860002704F07F063046FFF750FEFA
:101B000007462E463046FFF74BFE0746012001F000
:101B100031F90120DA49C1F89002BDE8F0812DE9E0
:101B2000F04104460D460020D649086004F07F06C7
:101B300000273046FFF734FE07462E463046FFF7B3
:101B40002FFE0746012001F015F90120CB49C1F80D
:101B50008002BDE8F0812DE9F04104460D460020E9
:101B6000C5490860002744F080063046FFF718FE9C
:101B70000746FF20FFF714FE28700120C049C1F876
:101B80009002BDE8F0812DE9F04104460D460020A9
:101B9000BC49086044F0800600273046FFF700FE8D
:101BA00028700120B549C1F88002BDE8F0812DE917
:101BB000F04705460E46174600240020AE4908604F
:101BC00045F0800881464046FFF7EAFD814600BFA8
:101BD00004E0FF20FFF7E4FD3855641CB442F8DB55
:101BE0000120A5490860BDE8F0872DE9F0470646C9
:101BF0000F4614460020A349086046F0800881463D
:101C00004046FFF7CDFD2070012504E0FF20FFF7DF
:101C1000C7FD60556D1CBD42F8DB01209949086085
:101C2000BDE8F08710B5FFF7D4FDFFF707FFB62139
:101C30007E20FFF758FF322001F09CF804217D2020
:101C4000FFF751FF00217C20FFF74DFFB621142044
:101C5000FFF765FF322001F08DF800211120FFF71A
:101C60005EFF00214120FFF73EFF8C214020FFF75F
:101C70003AFF02210F20FFF752FF00211020FFF74B
:101C80004EFF10BD1CB501213C20FFF748FF00208E
:101C9000019008E001A93C20FFF775FF9DF80400C2
:101CA000C0F3400001909DF804000028F2D069467E
:101CB0003C20FFF768FF9DF80000C0F38000009013
:101CC0009DF8000008B900201CBD0820FCE710B5F5
:101CD00086B0044603A94120FFF73DFF04AA062170
:101CE0001220FFF764FF9DF810009DF8111000EB23
:101CF000012000B2ADF804009DF812009DF8131009
:101D000000EB012000B2ADF806009DF814009DF82C
:101D1000151000EB012000B2ADF80800BDF9040079
:101D200000EE100AB8EEC00ADFED570A20EE200AD6
:101D300084ED000ABDF9060000EE100AB8EEC00AF4
:101D4000DFED510A20EE200A84ED010ABDF90800FA
:101D500000EE100AB8EEC00ADFED4B0A20EE200AB2
:101D600084ED020A06B010BD00B52DED048B87B0DE
:101D700003214120FFF7B7FEA7214020FFF7B3FE64
:101D80000A2000F0F7FF0D216D20FFF7ACFE642064
:101D900000F0F0FF04A8FFF79AFF09216D20FFF77C
:101DA000A2FE642000F0E6FF01A8FFF790FF0021EB
:101DB0006D20FFF798FE642000F0DCFF9DED040A23
:101DC000DDED010A30EE600A10EE101A084602F04E
:101DD0006EFE41EC190BB0EE490AF0EE690A03F011
:101DE000F3FAB0EE408AF0EE608A9FED280B53ECD8
:101DF000102B51EC180B02F085FE54D39DED050A13
:101E0000DDED020A30EE600A10EE101A084602F00C
:101E10004EFE41EC190BB0EE490AF0EE690A03F0F0
:101E2000D3FAB0EE408AF0EE608A9FED180B53ECC7
:101E3000102B51EC180B02F065FE34D39DED060A11
:101E4000DDED030A30EE600A10EE101A084602F0CB
:101E50002EFE41EC190BB0EE490AF0EE690A03F0D0
:101E6000B3FAB0EE408AF0EE608A13E00008024058
:101E700000040240001002409002414200804042B3
:101E80000000414280824042E7416B3A000000A0DE
:101E90009999B93F1FED030B53EC102B51EC180B24
:101EA00002F030FE04D2022007B0BDEC048B00BD6E
:101EB000B6217E20FFF717FE04217D20FFF713FED9
:101EC00000217C20FFF70FFE8C214020FFF70BFE46
:101ED00000214120FFF707FE0020E5E770B5002054
:101EE000D749086080252846FFF75AFC0446FF20A2
:101EF000FFF756FC04460120D249C1F880023C207D
:101F000000F038FF0F2C05D02146CFA002F0CEFF05
:101F1000042070BD022322460A211846FEF7CFFC9A
:101F20002146CFA002F0C2FF0020F2E708B56946C3
:101F30000020FFF710FEC82000F01CFF69460020BB
:101F4000FFF709FE9DF800001E2806D09DF800103E
:101F5000C9A002F0ABFF012008BD9DF80010CCA085
:101F600002F0A4FF02239DF8002007211846FEF787
:101F7000A6FC0020F0E710B50024FFF753FEFFF7A2
:101F8000D5FF0443FFF7AAFF0443FFF7EDFE044328
:101F9000FFF778FE04432146C3A002F087FF2046E6
:101FA00010BD10B52DED028B86B0044603A90F209D
:101FB000FFF7E9FD9DF80C00052813D2DFE800F0DB
:101FC0000306090C0F009FEDBB8A0EE09FEDBA8A55
:101FD0000BE09FEDBA8A08E09FEDB98A05E09FED1E
:101FE000B98A02E09FEDB38A00BF00BF04AA0621B0
:101FF0000220FFF7FAFD9DF810009DF8111000EB8C
:10200000012000B2ADF804009DF812009DF81310F5
:1020100000EB012000B2ADF806009DF814009DF819
:10202000151000EB012000B2ADF80800BDF9040066
:1020300000EE100AB8EEC00AC0EE080A9FEDA20A30
:1020400020EE800A84ED000ABDF9060000EE100AB9
:10205000B8EEC00AC0EE080A9FED9B0A20EE800A87
:1020600084ED010ABDF9080000EE100AF8EEC00A7E
:1020700080EE880ADFED940A20EE200A84ED020A41
:1020800006B0BDEC028B10BD38B504466A4603218C
:102090001820FFF78CFD9DF8000000EE100AB8EE46
:1020A000400ADFED8A0A20EE200A9DF8010000EECA
:1020B000900AF8EE600A9FED861A00EE810A9DF8FC
:1020C000020000EE900AF8EE600A9FED821A00EE20
:1020D000810A84ED000A38BDF8B506466A46022139
:1020E0002220FFF764FD9DF80000C0009DF801105C
:1020F00000EB6114B4F5806F03DBA4F5006005B25A
:1021000000E025B200EE105AF8EEC00AB4EE001A54
:10211000B3EE070A00EE810A86ED000AF8BD10B59D
:102120002DED028B6C48FFF73CFFC82000F022FE2B
:10213000694890ED010A10EE101A084602F0B7FC4B
:1021400041EC180B53EC182B64A002F0AFFE624870
:1021500090ED000A10EE101A084602F0A8FC41ECBF
:10216000180B53EC182B64A002F0A0FE5A4890ED17
:10217000020A10EE101A084602F099FC41EC180B06
:1021800053EC182B63A002F091FE6848FFF79FFD07
:10219000C82000F0EFFD654890ED000A10EE101A1F
:1021A000084602F084FC41EC180B53EC182B60A09D
:1021B00002F07CFE5D4890ED010A10EE101A084610
:1021C00002F075FC41EC180B53EC182B5EA002F0EA
:1021D0006DFE564890ED020A10EE101A084602F005
:1021E00066FC41EC180B53EC182B5DA002F05EFE70
:1021F000394890ED010ABDEEC00A10EE102A032303
:1022000001210420FEF728FB334890ED000ABDEEC3
:10221000C00A10EE102A032305210420FEF71CFB40
:102220002D4890ED020ABDEEC00A10EE102A0323DD
:1022300009210420FEF710FBBDEC028B10BD00004D
:1022400080824042008040424759524F5F43484994
:10225000505F49445F4552523A25780D0A0000000C
:102260004759524F5F434849505F49445F73756314
:10227000633A25780D0A00004143435F43484950C3
:102280005F49445F4552523A25780D0A000000002C
:102290004143435F434849505F49445F73756363FB
:1022A0003A25780D0A000000626D693038383A2509
:1022B000780D0A006F1283416F1203426F1283423E
:1022C0006F1203436F12834335FA8E3C0AD72338CB
:1022D0000AD7233C0AD7234098100020424D4930AA
:1022E0003838444154415F4759524F7069746368AC
:1022F0003A25660D0A000000424D49303838444105
:1023000054415F4759524F726F6C6C3A25660D0A03
:1023100000000000424D49303838444154415F4785
:1023200059524F7961773A25660D0A00BC1000209A
:10233000424D49303838444154415F414343583A53
:1023400025660D0A00000000424D493038384441EE
:1023500054415F414343593A25660D0A000000008D
:10236000424D49303838444154415F4143435A3A21
:1023700025660D0A000000001CB50121022001F0B5
:10238000E1FB4FF44060009001208DF80400002034
:102390008DF8060001208DF8070002208DF8050059
:1023A0006946FD4800F006FF0120FC490860FC4931
:1023B000C1F8AC021CBD10B5F748006820F440001D
:1023C000F54908600846006840F480000860012074
:1023D000F2490860F249C1F8AC02062000F082FC24
:1023E0000020EE49091D0860062000F07BFC00205B
:1023F000EB49C1F8A80210BD10B5E748006820F409
:102400004000E54908600846006840F48000086024
:102410000020E2490860E249C1F8AC02062000F061
:1024200061FC0120DD490860DD49C1F8AC020A20E9
:1024300000F058FC10BD10B50024D748006820F407
:102440004000D54908600846006808600120D3496B
:102450000860052000F046FC0120D149C1F8AC021B
:10246000052000F03FFC07E0601CC4B2FA2C03DD3D
:10247000FFF7C2FF012010BDC8487C380068002863
:10248000F2D1C649086000BFF5E710B50020C34986
:102490000860C148006820F44000BF490860084651
:1024A000006840F4800008600020BD49C1F8AC021B
:1024B000062000F017FC0120B8490860062000F053
:1024C00011FC0020B649C1F8A80210BD10B50020CB
:1024D000B2490860B048006820F44000AE49086086
:1024E0000846006840F4800008600120AC49C1F84B
:1024F000A802062000F0F6FB0120A849091D08608B
:10250000062000F0EFFB0020A549C1F8A80210BD8D
:1025100070B50446A048006820F440009E49086059
:102520000846006840F48000086000209B4908606D
:10253000002517E0E0099949091D08606006040EAE
:10254000062000F0CFFB01209549C1F8A802062023
:1025500000F0C8FB002091490860062000F0C2FB93
:10256000681CC5B2082DE5DB70BD70B505460024BA
:102570008948006820F440008749086008460068E0
:102580000860002616E0002084490860062000F05C
:10259000A9FB01208249C1F8A8026006040E7F4809
:1025A0007C38006808B1601CC4B2062000F09AFBB9
:1025B000701CC6B2082EE6DB15B9FFF787FF01E0F5
:1025C000FFF763FF204670BD70B504460D46002638
:1025D000FFF7F1FE2046FFF79BFFFFF72CFF284691
:1025E000FFF796FFFFF727FFFFF7E5FE44F0010036
:1025F000FFF78EFFFFF71FFF0020FFF7B6FF06462D
:10260000FFF7FAFE304670BD2DE9F04107468846D7
:1026100015461E460024FFF7CEFE3846FFF778FF2A
:10262000FFF709FF4046FFF773FFFFF704FFFFF7CF
:10263000C2FE47F00100FFF76BFFFFF7FCFE00BF93
:102640000CE0681EA04204D10020FFF78EFF305539
:1026500003E00120FFF789FF3055641CAC42F0DB3A
:10266000FFF7CAFEBDE8F08170B506460C46154678
:10267000FFF7A1FE3046FFF74BFFFFF7DCFE2046D9
:10268000FFF746FFFFF7D7FE2846FFF741FFFFF7AA
:10269000D2FEFFF7B1FE70BD2DE9F04180460D4638
:1026A00016461F460024FFF786FE4046FFF730FF20
:1026B000FFF7C1FE2846FFF72BFFFFF7BCFE00BF68
:1026C00005E0385DFFF724FFFFF7B5FE641CB44258
:1026D000F7DBFFF791FEBDE8F08110B531480078D7
:1026E00008B1012010BD142000F044FBD021EC20E3
:1026F000FFF76AFF2C490870084601782BA002F00A
:10270000D5FB2948007858280CD1274801782DA0FE
:1027100002F0CCFB02232448027801211846FEF780
:10272000CEF801E00020DDE72B4B18228821EC20B9
:10273000FFF76AFFB322F421EC20FFF795FF142284
:10274000F521EC20FFF790FF01201649087000BF2B
:10275000C8E71CB56B460622F721EC20FFF754FFB3
:102760009DF8000000039DF8011040EA01109DF85B
:10277000021040EA1110194908609DF80300000397
:102780009DF8041040EA01109DF8051040EA111070
:10279000134908601CBD000000040240A8824042AA
:1027A000008040424D0000204C000020424D50323D
:1027B0003830204944206572726F723A2030782593
:1027C000580D0A00424D50323830204944204953B8
:1027D0003A20307825580A00E010002050000020F0
:1027E0005400002030B50146CC10FD4D2D88A4EBDF
:1027F0004504FB4DB5F902506C43E212F84C2488B5
:10280000C4EB211464432413F54DB5F904506C4313
:10281000A313D418F24DAC612C46A46904EB8404D4
:102820008034201230BD2DE9F14F82B0EC48806930
:10283000C1174FF4FA33C41A61F10005A4FB041068
:1028400005FB040004FB0502E548B0F91000C317BE
:10285000A1FB008A02FB00A001FB0309E048B0F9DC
:102860000E00C117A0FB042301FB043100FB05107F
:10287000400440EAD230510411EB080840EB09094A
:10288000D748B0F90C0018F1000849EBC009A4FBC7
:10289000041005FB040004FB0503D148B0F90A004D
:1028A0004FEAE072A1FB00CA03FB00A001FB02019A
:1028B0004FEA1C2040EA01604FEA2122C849B1F9E1
:1028C00008104FEAE17C2346A1FB03BE0CFB04E3A6
:1028D00001FB05314FEA013141EA1B514FEA0B334D
:1028E000C41842EB0105221C45F50041BC48C088D4
:1028F0000023A2FB00AC01FB00C002FB03014C1053
:10290000CD17002184EA01006940084301D1BDE8E8
:10291000FE8F0298C0F58010C7170646F80740EAF8
:102920005600F107B1EB080160EB090C40F63540A9
:102930000022A1FB003A0CFB00A001FB0201224691
:10294000CDE900312B46009801F0BBFE06460F464C
:10295000A348B0F91600C217710B41EAC74C7B13AC
:10296000A0FB0C1A02FB0CA200FB0322700B40EA36
:10297000C7407B13A1FB00CA02FB00A001FB0301BF
:102980004FEA5C6040EAC1144D169548B0F9140056
:10299000C117A0FB062301FB063100FB0711D00C79
:1029A00040EA41384FEAE149311947EB050011EBA4
:1029B000080140EB0900020642EA11208849B1F9FA
:1029C0001210090146183046A1E770B52DED088BAD
:1029D00004460D469FED830BB0EE409AF0EE609AF0
:1029E000002682488249097800EB810090ED000AB8
:1029F000B5EEC00AF1EE10FA17D194ED000A7B484B
:102A00007B49097800EB810080ED000A94ED000A13
:102A100085ED000A76480078401CC0B27449087001
:102A200005286ADB0020087067E07148007860B113
:102A300094ED000A6E480078401E6C4901EB80005E
:102A4000D0ED000A30EE608A06E094ED000A674897
:102A5000D0ED040A30EE608A18EE100A02F027F872
:102A600041EC1B0BB0EE4B0AF0EE6B0A02F0ACFC33
:102A7000B0EE40AAF0EE60AA9FED5E0B53EC102B77
:102A800051EC1A0B02F026F812D294ED000A5748C6
:102A90005749097800EB810080ED000A544800781E
:102AA000401CC0B252490870052801DB00200870A4
:102AB000002613E04D4800EB860090ED000A10EE72
:102AC000101A084601F0F3FF41EC1A0B53EC192BD6
:102AD00001F028FE41EC190B701CC6B2052EE9DB93
:102AE0009FED460B53EC102B51EC190B01F033FF0B
:102AF00041EC1A0B02F01EF82860BDEC088B70BD8B
:102B000070B52DED0A8B044694ED000AB5EEC00AAF
:102B1000F1EE10FA39DD94ED000ADFED3A0A80EEAD
:102B2000801A11EE105A284601F0C1FF41EC1C0B2F
:102B30009FED351BB0EE4C0AF0EE6C0A02F050FC33
:102B4000B0EE40BAF0EE60BA9FED310B53EC102BB3
:102B500051EC1B0B01F087FE41EC1A0B9FED2E0B85
:102B600053EC102B01F085FE41EC190B9FED2C0B63
:102B700053EC102B01F0EFFE41EC180B01F0DAFFE3
:102B800000EE100ABDEC0A8B70BD9FED270AF9E735
:102B90002DE9F0412DED048B04460D461646FFF756
:102BA000D8FD22480068FFF71DFE074601F042FFEE
:102BB00041EC190B9FED1E0B53EC102B01F0CBFEDB
:102BC00041EC180B01F0B6FF1B4908601B48006878
:102BD000FFF729FE074601F03EFF41EC190B2FE0FD
:102BE000E01000200000000000000000FC100020A9
:102BF00058000020000000A09999B93F0000000093
:102C000000001440CDEC7D4428610C878A5AC83FEF
:102C1000000000000000F03F0000006066A272406B
:102C200000000080BE9F7A3F00000000540000209A
:102C300000000000000059405C000020500000200F
:102C40009FED170B53EC102B01F085FE41EC180B98
:102C500001F070FF1449086021461348FFF7B5FEE4
:102C6000124890ED000A85ED000A2046FFF748FF64
:102C700086ED000ABDEC048BBDE8F0810EB56A4616
:102C800002A901A8FFF784FF02239DED020ABDEE11
:102C9000C00A10EE102A04210320FDF7DDFD0EBD51
:102CA000000000000000D940600000205C0000200F
:102CB00010B504466FF0040000F0D8F9E11704EBFA
:102CC0005171C1F3C701394A11701046007800EB09
:102CD0004001C1EBC0104FF6FF7101EAC00034495A
:102CE000088010BD0146314A12784A434FF0E02374
:102CF0005A6100229A611A46126942F001021A6171
:102D000000BF4FF0E022106900F001021AB100F498
:102D10008032002AF5D04FF0E022126922F0010241
:102D20004FF0E0231A6100229A6170470146204A61
:102D300012884A434FF0E0235A6100229A611A46F2
:102D4000126942F001021A6100BF4FF0E0221069DF
:102D500000F001021AB100F48032002AF5D04FF0E1
:102D6000E022126922F001024FF0E0231A610022F2
:102D70009A61704770B504464FF4077094FBF0F009
:102D8000C6B24FF4077094FBF0F100FB114085B21E
:102D900005E04FF40770FFF7C9FF701EC6B2002EA2
:102DA000F7D115B12846FFF7C1FF70BD64000020C0
:102DB0006600002000BF704700BF754A128802F00D
:102DC0004002002AF9D0C2B2714B9A80704710B508
:102DD00088B004460121084600F0B4FE012110200D
:102DE00000F00AFF072209216A4800F06EFA072264
:102DF0000A21684800F069FA4FF4C060069002208A
:102E00008DF81C008DF81D0000208DF81E0001209B
:102E10008DF81F0006A95F4800F0CCF9029400204D
:102E2000ADF80C00ADF80E00ADF81000ADF81400D0
:102E30000C20ADF8120002A9554800F0E6FA012175
:102E4000534800F06AFB012240F22551504800F03F
:102E50001AFC25208DF8040003208DF805008DF85C
:102E6000060001208DF8070001A800F0B2F808B0B4
:102E700010BD70B504460D462946204600F078FB8B
:102E800000BF8021204600F023FC0028F9D070BD4F
:102E90002DE9F04105460C46260AE7B231462846A0
:102EA00000F066FB00BF8021284600F011FC0028DE
:102EB000F9D03946284600F05BFB00BF8021284648
:102EC00000F006FC0028F9D0BDE8F0812DE9F041C2
:102ED00007460D46164600240CE0295D384600F0F2
:102EE00047FB00BF8021384600F0F2FB0028F9D0F4
:102EF000601C84B2B442F0DB00BF4021384600F0D1
:102F0000E7FB0028F9D0BDE8F08170B506460C4615
:102F1000002500BF615D3046FFF7ABFF6D1C605DB3
:102F20000028F7D100BF4021304600F0D1FB002837
:102F3000F9D070BD10B540F22551154800F0DEFB08
:102F400028B3134800F018FBC4B21348006850B10E
:102F5000232C08D011481049096844540E480068D1
:102F6000401C0D490860232C08D100200A49086044
:102F70000A48047008460068401C08600A2C06D104
:102F8000002005490860054840780549087010BDD3
:102F90000010014000000240740000206E0000207C
:102FA000730000200648804706480047FEE7FEE71A
:102FB000FEE7FEE7FEE7FEE7FEE7FEE7FEE7FEE7E9
:102FC000210300088901000832490143324A116097
:102FD000704770B5002100230F22C4781CB32E4C1B
:102FE000246804F4E064C4F5E064C4F30721C1F18B
:102FF0000404E3B20A4144789C40E1B2847814406E
:1030000021430C07210E254C05786155047804F006
:103010001F050124AC4005786D11AD0005F1E025D8
:10302000C5F8004109E0047804F01F050124AC4014
:103030001B4D0678761145F8264070BD194A0A40A6
:103040000243154B1B1F1A60704739B1124A121DFB
:1030500012680243104B1B1D1A6006E00E4A121D37
:10306000126882430C4B1B1D1A607047042808D15C
:103070004FF0E021096941F004014FF0E0221161B5
:1030800007E04FF0E021096921F004014FF0E02250
:10309000116170470000FA050CED00E000E400E06B
:1030A00080E100E080FFFF1F10B50446984884428D
:1030B00008D10121084600F0B0FD0021012000F0F8
:1030C000ACFD76E09348844208D10121022000F053
:1030D000A4FD0021022000F0A0FD6AE08E48844299
:1030E00008D10121042000F098FD0021042000F007
:1030F00094FD5EE08948844208D10121082000F057
:103100008CFD0021082000F088FD52E084488442B4
:1031100008D10121102000F080FD0021102000F0D6
:103120007CFD46E07F48844208D10121202000F048
:1031300074FD0021202000F070FD3AE07A488442BE
:1031400008D10121402000F068FD0021402000F05E
:1031500064FD2EE07548844208D10121802000F0F2
:103160005CFD0021802000F058FD22E07048844280
:1031700008D10121801500F050FD0021A01500F0BC
:103180004CFD16E06B48844208D10121401500F047
:1031900044FD0021601500F040FD0AE066488442CD
:1031A00007D10121001500F038FD0021201500F0A5
:1031B00034FD10BDF0B50A4600210023002400BFF5
:1031C0003DE0012505FA01F3156805EA03049C4278
:1031D00034D105684F000326BE40B543056015791C
:1031E0004E00B5400668354305601579012D02D0C3
:1031F0001579022D16D185684F000326BE40B543D0
:10320000856055794E00B5408668354385604568D0
:1032100001268E40B5434560456896798E40B6B22A
:1032200035434560C5684F000326BE40B543C560C1
:10323000D5794E00B540C6683543C560491C102994
:10324000BFD3F0BD4FF6FF710160002101714171E4
:103250008171C171704708B54FF480320092009AB5
:103260000A430092009AC261C161009AC261C269B8
:103270000092C269009208BD0246002013690B400B
:103280000BB1012000E0002070470146086980B2C0
:1032900070470246002053690B400BB1012000E04B
:1032A000002070470146486980B27047018370472B
:1032B000418370470AB1018300E041837047416157
:1032C000704742694A4042617047F0B500230024CC
:1032D0004D07ED0E02FA05F3CE1000F1200555F86A
:1032E00026504E07F70E0F26BE40B543CF1000F113
:1032F000200646F82750CE1000F1200555F826503C
:1033000045EA0304CE1000F1200545F82640F0BD43
:10331000000002400004024000080240000C02408D
:10332000001002400014024000180240001C02403D
:1033300000200240002402400028024010B504464C
:10334000FA48844208D10121102000F0AAFC002193
:10335000102000F0A6FC57E0F548844209D1012175
:10336000480400F08DFC00214FF4003000F088FC90
:103370004AE0F048844209D10121880400F080FC31
:1033800000214FF4802000F07BFC3DE0EA488442BD
:1033900009D10121C80400F073FC00214FF4002082
:1033A00000F06EFC30E0E548844209D101210805B7
:1033B00000F066FC00214FF4801000F061FC23E077
:1033C000DF48844208D10121202000F06AFC00215E
:1033D000202000F066FC17E0DA48844209D1012180
:1033E000880700F04DFC00214FF0804000F048FCC1
:1033F0000AE0D548844207D10121400500F040FC95
:103400000021600500F03CFC10BD2DE9FF4705469A
:103410000E460024A14600BFA046B08900B100BFFF
:103420002C8A24F44054F08804432C82AC8941F265
:103430000C608443B0883189084371890843044390
:10344000AC81AC8A24F44074B0890443AC826846F1
:1034500000F0A7FAB548854202D0B948854202D1AA
:10346000DDF80C9001E0DDF80890A88900F4004038
:1034700040B109EBC90000EB091031684900B0FB0D
:10348000F1F707E009EBC90000EB0910316889008A
:10349000B0FBF1F76420B7FBF0F0040120096421D0
:1034A00001FB1078A88900F4004040B1322000EB05
:1034B000C800B0FBF1F000F00700044308E0322040
:1034C00000EB08106421B0FBF1F000F00F000443A2
:1034D0002C81BDE8FF874FF41651016000218180E7
:1034E000C18001810C21418100218181704710B58B
:1034F00002460020108A20F470600B884C88234319
:103500008C882343CC8823431843108210BD0021AC
:10351000018041808180C180704721B1828942F45D
:103520000052828104E082894DF6FF731A40828145
:103530007047028B02F47F420283028B0A430283AC
:10354000704721B1828942F40042828103E082897E
:10355000C2F30E028281704721B1828A42F4006276
:10356000828204E0828A4FF2FF731A40828270479F
:10357000C1F308028280704701468888C0F30800C2
:103580007047028A4FF6F0731A400282028A0A4399
:103590000282704721B1828942F00202828104E0F6
:1035A00082894FF6FD731A408281704782894FF2FB
:1035B000FF731A40828182890A4382817047028A9E
:1035C0004FF6DF731A400282028A0A430282704772
:1035D00021B1028A42F48042028204E0028A4BF660
:1035E000FF731A4002827047818941F00101818195
:1035F000704721B1828A42F00802828204E0828A06
:103600004FF6F7731A4082827047028BD2B2028360
:10361000028B42EA01220283704721B1828A42F082
:103620002002828204E0828A4FF6DF731A4082828F
:10363000704721B1828A42F01002828204E0828ABD
:103640004FF6EF731A4082827047828A4FF6FB73FF
:103650001A408282828A0A438282704721B1828A1A
:1036600042F00202828204E0828A4FF6FD731A4021
:10367000828270471AB1838A0B43838202E0838A75
:103680008B4383827047F0B5034600240026002553
:10369000002040F66A17B94200D100BF1846C1F3B6
:1036A000421401F01F06012707FA06F5012C01D18B
:1036B0000C3004E0022C01D1103000E014301AB1BB
:1036C00007682F43076002E00768AF430760F0BD5B
:1036D00002460020B1F5007F00D100BF13880B40E7
:1036E0000BB1012000E00020704701F40072B2F538
:1036F000007F00D100BFCA430280704770B5024608
:10370000002400230025002040F66A16B14200D1B3
:1037100000BFC1F3421501F01F03012606FA03F3AF
:10372000012D13D19689334017E0000000100140AD
:103730000044004000480040004C00400050004061
:103740000014014000780040007C0040022D02D1AE
:10375000168A334001E0968A33400C12012606FA9D
:1037600004F41688344013B10CB1012000E00020AD
:1037700070BD10B50022002340F66A14A14200D1AA
:1037800000BF0A1201249440A3B2DC43048010BDA0
:10379000F948006840F00100F74908600020F64948
:1037A00008310860F4480068F4490840F2490860AC
:1037B000F348091D0860F348EF4984310860F04878
:1037C0001038091D0860EC48006820F48020EA49A0
:1037D00008600020E8490C310860E7498C31086036
:1037E00070470021E44A921C11701146087070471E
:1037F00010B501460022002300204A11012A02D1FF
:10380000DD4C236808E0022A03D1DB4C70342368C6
:1038100002E0D94C7434236801F01F020124944063
:103820001C400CB1012000E0002010BD38B5002084
:1038300000900024002500BF3120FFF7D9FF054686
:103840000098401C00900098B0F5A04F01D0002DCA
:10385000F2D03120FFF7CCFF08B1012400E00024B2
:10386000204638BD01460020C34A106820F0F80009
:1038700040EAC10010607047C349086070470021EA
:10388000BD4A703211701170012802D004280AD18B
:1038900004E00121B84A7032117005E00521B64AF2
:1038A0007032117000E000BF00BF7047B749086078
:1038B000704770B5049C41EA82150126C6EB530699
:1038C00045EA0645054345EA0465AB4E361D3560BD
:1038D00070BDAD4908667047820142EA0172A64B8D
:1038E00084331A607047A8498866704710B5830111
:1038F00043EA016343EA02739F4C8834236010BD9E
:10390000A14908677047A049C86470470246002073
:10391000994B0833186820F0EC6042EA0103184321
:10392000954B08331860704702460020924B0833CD
:10393000186820F0784042EA010318438E4B0833A0
:1039400018607047014600208B4A0832106820F04A
:10395000030008431060704787480830006800F093
:103960000C00704701460020834A0832106820F09E
:10397000F000084310607047014600207E4A08327C
:10398000106820F4E05008431060704701460020A2
:10399000794A0832106820F4604040EAC1001060A3
:1039A0007047F0B5002100220024022500260223E2
:1039B000714F08373F6807F00C0121B1042905D089
:1039C000082937D105E0724F076036E0714F076074
:1039D00033E0694F3F1D3F68C7F38056664F3F1D78
:1039E0003F6807F03F036EB16A4FB7FBF3F7DFF8AC
:1039F00088C10CF1040CDCF800C0CCF3881C07FB78
:103A00000CF40CE0624FB7FBF3F7DFF86CC10CF17C
:103A1000040CDCF800C0CCF3881C07FB0CF4564FF8
:103A20003F1D3F68C7F301477F1C7D00B4FBF5F7DE
:103A3000076002E0564F076000BF00BF4E4F0837D7
:103A40003F6807F0F0010909534F7A5C0768D740D7
:103A50004760494F08373F6807F4E051890A4E4FE5
:103A60007A5C4768D7408760434F08373F6807F460
:103A70006041490B484F7A5C4768D740C760F0BD4A
:103A8000002100F44072B2F5407F0AD13A4A083270
:103A9000116821F4F811414A02401143364A0832B4
:103AA0001160354A70321268C0F30B031A43324B6F
:103AB00070331A607047354944390860704733499C
:103AC0004039086070473649086070470146002059
:103AD000294A8C32106820F01F004A1E1043264AE3
:103AE0008C321060704701460020234A8C321068E7
:103AF00020F4F8504A1E40EA02201F4A8C3210601F
:103B00007047014600201C4A8C32106820F4401097
:103B100008431060704701460020174A8C32106835
:103B200020F4400008431060704701460020124A0C
:103B30008C32106820F440300843106070471949F7
:103B40000860704739B10C4A3032126802430A4BA0
:103B500030331A6006E0084A303212688243064B5E
:103B600030331A607047F9B1034A343212680243A5
:103B7000014B34331A601CE000380240FFFFF6EAC4
:103B8000103000240030002000004742800E4742E1
:103B90000024F40000127A0078000020FFFCFF0FE0
:103BA0005C014742E01147428F4A126882438E4BC4
:103BB0001A60704739B18C4A121D126802438A4B51
:103BC0001B1D1A6006E0884A121D12688243864B4C
:103BD0001B1D1A60704739B1834A0C3212680243C8
:103BE000814B0C331A6006E07F4A0C321268824324
:103BF0007D4B0C331A60704739B17B4A1032126822
:103C00000243794B10331A6006E0774A103212688B
:103C10008243754B10331A60704739B1724A243AA7
:103C200012680243704B243B1A6006E06E4A243A45
:103C3000126882436C4B243B1A60704739B16A4A60
:103C4000203A12680243684B203B1A6006E0664A3D
:103C5000203A12688243644B203B1A60704739B1A6
:103C6000614A1C3A126802435F4B1C3B1A6006E033
:103C70005D4A1C3A126882435B4B1C3B1A607047DA
:103C800039B1594A143A12680243574B143B1A602F
:103C900006E0554A143A12688243534B143B1A60AB
:103CA000704739B1504A103A126802434E4B103BEC
:103CB0001A6006E04C4A103A126882434A4B103BA5
:103CC0001A60704739B1484A1C3212680243464BA9
:103CD0001C331A6006E0444A1C3212688243424B8D
:103CE0001C331A60704739B13F4A203212680243D0
:103CF0003D4B20331A6006E03B4A20321268824373
:103D0000394B20331A60704739B1374A2432126870
:103D10000243354B24331A6006E0334A24321268DA
:103D20008243314B24331A60704739B12E4A2C320A
:103D3000126802432C4B2C331A6006E02A4A2C32BC
:103D400012688243284B2C331A60704739B1264AD7
:103D5000303212680243244B30331A6006E0224AA4
:103D6000303212688243204B30331A60704701288A
:103D700008D11D493C31096841F008011A4A3C321A
:103D8000116007E018493C31096821F00801164A22
:103D90003C321160704739B1134A273A1278024316
:103DA000114B273B1A7006E00F4A273A12788243DC
:103DB0000D4B273B1A7070470B484030006840F0AD
:103DC0008070094940310860704701460020064A6A
:103DD000283A12680A400AB1012000E0002070472A
:103DE00001492639087070473438024010B504463E
:103DF000FB48844208D101218014FFF752FF0021C3
:103E0000A014FFF74EFF3CE0F648844208D10121A0
:103E10000014FFF735FF00212014FFF731FF30E0D9
:103E2000F148844208D10121C013FFF729FF002186
:103E3000E013FFF725FF24E0EC48844208D101217C
:103E40004014FFF72EFF00216014FFF72AFF18E04F
:103E5000E748844209D101210805FFF722FF00212C
:103E60004FF48010FFF71DFF0BE0E248844208D1B9
:103E700001214805FFF715FF00214FF40010FFF75F
:103E800010FF10BD10B50022028802F441520B88C9
:103E90004C8823438C882343CC8823430C892343B9
:103EA0004C8923438C892343CC8923431A430280C2
:103EB000838B4FF2FF74234083830B8A038210BDF0
:103EC0002DE9F04F0025022300244FF001090022C4
:103ED0000026002794469046B0F81CA04FF2400BF5
:103EE0000AEA0B0AA0F81CA04FF0020AA0F820A0D2
:103EF000858BD1F808A0BAF1020F01D100BF82E092
:103F0000B1F804A0BAF1000F02D14FF0010901E0AD
:103F10004FF00209DFF8E0A2DAF800A00AF4000A84
:103F2000BAF1000F09D0DFF8D0A2DAF800A02AF425
:103F3000000ADFF8C4B2CBF800A0DFF8BCA20AF197
:103F40007C0ADAF800A0CAF3881CDFF8ACA20AF1F8
:103F50007C0ADAF800A0CAF30278DFF89CA2AAF182
:103F6000040ADAF800A00AF03F07DFF88CA2AAF1F1
:103F7000040ADAF800A00AF4800ABAF5800F08D122
:103F8000DFF878A2BAFBF7FA0AFB0CFABAFBF8F6EC
:103F900007E0DFF86CA2BAFBF7FA0AFB0CFABAFBEF
:103FA000F8F6B1F806A0BAF5007F0ED14FEA162A4E
:103FB0000AEB8A0A4FEA4A0AD1F808B0BAFBFBFAC0
:103FC0000AF1050A1FFA8AF20FE04FEA491AB6FB16
:103FD000FAFA0AEB8A0A4FEA4A0AD1F808B0BAFBA1
:103FE000FBFA0AF1050A1FFA8AF24FF00A0AB2FB3D
:103FF000FAF202F00104A2EB040ACAF34F034FF6EF
:10400000FF7A0AEA0424022B01DBFF2B01DD0223E5
:104010000024B1F806A04AEA040A4AEA030AA0F812
:1040200020A0B1F804A0B1F80CB04AEA0B0AB1F82C
:1040300002B04AEA0B0AB1F800B04AEA0B0A4AF4A5
:10404000006A4AEA05058583BDE8F08F00210180FA
:1040500041808180C180018141818181C1810721AD
:10406000018270470021018041808180C18002214E
:10407000816000218181704721B1028842F04002B5
:10408000028004E002884FF6BF731A400280704736
:1040900021B1828B42F48062828304E0828B4FF6EE
:1040A000FF331A408283704702884FF2FF731A4031
:1040B000028002880A4302807047B1F5804F04D124
:1040C000028842F48042028004E002884BF6FF73CB
:1040D0001A40028070474FF6FF62914204D0028876
:1040E00042F48072028004E002884FF6FF631A40B7
:1040F0000280704721B1828842F00402828004E08D
:1041000082884FF6FB731A408280704721B1828803
:1041100042F01002828004E082884FF6EF731A406A
:104120008280704730B500220023848B4FF2400517
:104130002C40848302240484828B0C88B4F5007F95
:1041400001D00C8814B94FF4807308E00C88B4F5E2
:10415000407F03D00C88B4F5807F00D100238C8889
:104160008D892C434D882C431C4344F40064224326
:10417000828330BD0146888970478181704721B1B3
:10418000028842F40052028004E002884DF6FF7378
:104190001A4002807047018841F4805101807047C5
:1041A00002460020012901D0108B00E0908A704760
:1041B0000146088A70471AB183880B43838002E066
:1041C00083888B438380704730B5002400230C1113
:1041D0000125A540ABB2AAB185881D43858014E0B6
:1041E0000030014000380040003C004000340140F5
:1041F00000500140005401400838024000127A008B
:104200000024F40085889D43858030BD024600204F
:1042100013890B400BB1012000E000207047CA4316
:1042200002817047F0B502460020002400230025DB
:1042300001F00F070126BE40B4B20B1101269E40CB
:10424000B3B2968806EA03051689264016B10DB169
:10425000012000E00020F0BD10B5002201F00F04A5
:104260000123A3409AB2D343038110BD10B5044685
:10427000F848844209D101214805FFF701FD0021DA
:104280004FF40010FFF7FCFC18E0F348844209D11A
:1042900001218805FFF7F4FC00214FF48000FFF7AF
:1042A000EFFC0BE0ED48844208D10121C805FFF77F
:1042B000E7FC00214FF40000FFF7E2FC10BD2DE900
:1042C000FF4704460D460026B1460427DFF89083D9
:1042D000A6884FF6C07006406846FFF762FBDDF81F
:1042E0000880E048B8FBF0F01FFA80F946EA0906BA
:1042F000A68020884FF6FE71084020800026DA490B
:10430000286888420CD828684000B8FBF0F087B2D3
:10431000042F00DA04273E4309F10100208427E03E
:10432000E8884BF6FF71884206D1286800EB400010
:10433000B8FBF0F087B209E0286800EBC00101EBA0
:104340000010B8FBF0F087B247F48047C7F30B00CA
:1043500008B947F0010747F4004006434FF4967050
:1043600009FB00F04FF47A7190FBF1F0401C2084BF
:10437000A683208840F00100208026884FF6F53083
:104380000640A8886989084306432680A8892989A8
:1043900008432081BDE8FF8741F288310160002198
:1043A00081804BF6FF71C1800021018141814FF472
:1043B00080418181704721B1028842F00102028070
:1043C00004E002884FF6FE731A400280704729B15C
:1043D000828C4FF6EF731A40828403E0828C42F0A5
:1043E0001002828470470A460021818C4FF6F073D8
:1043F000194002F00F0319438184704721B10288EC
:1044000042F48072028004E002884FF6FF631A4093
:104410000280704721B1028842F40072028004E0F9
:1044200002884FF6FF531A400280704712B141F0E4
:10443000010101E001F0FE010182704721B1028813
:1044400042F48062028004E002884FF6FF331A4093
:10445000028070470A46002181894FF60173194096
:1044600002F0FE0319438181704721B1828942F035
:104470000102828104E082894FF6FE731A40828134
:10448000704721B1028842F04002028004E00288B5
:104490004FF6BF731A400280704721B1028842F480
:1044A0000042028003E00288C2F30E0202807047DD
:1044B00021B9028842F08002028004E002884FF6AF
:1044C0007F731A4002807047B1F5804F05D0828B10
:1044D0004BF6FF731A40828303E0828B42F48042E2
:1044E00082837047B1F5006F04D1028842F4006204
:1044F000028004E002884FF2FF731A400280704786
:10450000B1F5005F04D1028842F40052028004E059
:1045100002884DF6FF731A400280704721B102886D
:1045200042F01002028004E002884FF6EF731A4056
:1045300002807047018270470146088AC0B2704706
:1045400021B1028842F48052028004E002884EF6D3
:10455000FF731A4002807047B1F5006F04D10288E2
:1045600042F40062028004E002884FF2FF731A40B6
:104570000280704721B1028842F02002028004E0EC
:1045800002884FF6DF731A40028070470146088B9D
:104590000012704721B1828842F40062828004E0F8
:1045A00082884FF2FF731A408280704721B182885F
:1045B00042F48052828004E082884EF6FF731A40F3
:1045C0008280704708B50246002000900092009853
:1045D000084400900098008808BD1AB183880B43F6
:1045E000838002E083888B438380704770B50246E6
:1045F0000024002500230020958A138B1B0445EA24
:10460000030626F07F4404EA01068E4201D1012010
:1046100000E0002070BD10B50146002000230022FC
:104620008B8A0A8B120443EA020424F07F4010BDF7
:104630000CB50246002000230193009300920B0F5B
:10464000019321F07F41019B83B1009B14330093C0
:1046500010E000000054004000580040005C0040A2
:1046600000127A0040420F00A0860100090C009B56
:1046700018330093009B1B680B400BB1012000E036
:1046800000200CBD002221F07F42D343838270477B
:1046900030B5024600200023948801F0E06504EA6A
:1046A000154321F07F41948A0C4014B10BB10120D5
:1046B00000E0002030BD002221F07F42D3438382FE
:1046C00070472DE9F0410024061B254671F10006D4
:1046D00005DA01240027D0EB070067EB0101161E65
:1046E00073F1000605DA0027D2EB0702012567EB1C
:1046F000030300F051FA86460E4617469C46AC422C
:1047000004D00025D0EB050E65EB010624B1002096
:10471000D2EB000760EB030C704631463A46634625
:10472000BDE8F0812DE9FE4F804681EA0300C00F0D
:104730000C46009021F0004123F00045B8EB020048
:10474000A94105D24046214690461C460B460246EA
:1047500023F00040104347D0270DC7F30A00C3F3EE
:104760000A510290401A019040286BDAC3F31300FB
:1047700040F4801B0098924620B10023D2EB030A3C
:1047800063EB0B0B01985946C0F14002504600F014
:1047900034FA06460D4650465946019A00F04CFA46
:1047A00010EB08006141002487EA115284EAE773A4
:1047B0001A4340D0009A62B3019A012A4FEA075285
:1047C00015DC001B61EB02014FF0004202EA0752C8
:1047D000CDE90042001C41F5801132462B4600F025
:1047E00083FA03B0BDE8F08F40462146F9E7001B8D
:1047F00061EB0201001C41F5801300185B41201899
:10480000A2F5001747EB030140EAD570B6196D41D8
:1048100011E06D084FEA360645EAC0754FEA0752C7
:10482000001B61EB0201001C41F5801149084FEAB1
:1048300030000019514132462B4603B0BDE8F04F1D
:1048400000F043BA0098012240000023D0EB02029E
:1048500063EBE073009821464FEAE074B8EB000088
:1048600061EB0401E9E783F000435BE781F000417D
:1048700058E72DE9FE4F81EA030404F0004421F0DB
:10488000004100944FF0000B23F0004350EA010474
:104890005ED052EA03045BD0C3F30A54C1F30A5555
:1048A0002C44A4F2F3340194A0FB0254C1F313018D
:1048B00041F48011C3F3130343F4801301FB02445A
:1048C00000FB034E840A970A44EA815447EA83575F
:1048D000A4FB076802958D0A05FB07854FEA932C18
:1048E00004FB0C542705029D4FEA065847EA163789
:1048F000B5EB08056EEB070C870E920E47EA8117A1
:1049000042EA8312A7FB0201B6EB0B0164EB000441
:104910002B0D43EA0C335E1844EB1C50DA4651462B
:10492000E7FB0201C5F313044FEA0B3343EA1453C8
:104930004FEA0432019C43EA0603A4F10C040294FA
:10494000009CCDE900B400F0CFF903B0BDE8F08FD2
:1049500000200146F9E72DE9F04D81EA030404F057
:10496000004B21F0004514464FF0000A23F00041AF
:1049700050EA050220D054EA01021DD0C5F30A57BF
:104980000246C5F31303C1F31300C1F30A5640F402
:10499000801543F48013A7EB0608101BD64608F2D7
:1049A000FD3873EB050002D308F1010801E092180D
:1049B0005B41B8F1000F03DA00200146BDE8F08D3D
:1049C00000204FF48011064684460EE0171B73EB5F
:1049D000050705D3121B63EB050306434CEA010CE4
:1049E00049084FEA300092185B4150EA0107EDD1C7
:1049F00052EA030012D082EA040083EA0501084368
:104A000005D0101BAB4106D20122002306E0002294
:104A10004FF0004302E06FF0010253101AEB060062
:104A20004CEB085110EB0A0041EB0B01BDE8F04DD7
:104A300000F04BB90EB5C10F80EAE0700844CA0718
:104A4000002140F233438DE80E000A460B4600F089
:104A50004BF903B000BD0EB540F233410291002185
:104A6000CDE900110A460B4600F03EF903B000BD47
:104A700070B5C1F30A5201F000450024C1F31301DF
:104A800040F2FF3341F480119A4201DA002070BDF8
:104A900040F233439A42A2F2334203DC524200F026
:104AA000BBF800E090402C43F1D0404270BD00F0D4
:104AB000004230F000400AD0C10D01F56071C0F332
:104AC000160042EA0151C208400711437047002016
:104AD0000146704730B5041E71F1000404DB4FF04D
:104AE0000044404264EB0101141E73F1000405DB35
:104AF0001C464FF00043524263EB04038B4208BF55
:104B0000824230BD30B5041E71F1000404DB4FF069
:104B10000044404264EB0101141E73F1000405DB04
:104B20001C464FF00043524263EB0403994208BF16
:104B3000904230BD01F0004330B421F0004150EA12
:104B4000010206D00A0DA2F56072C1F31301002A1A
:104B500002DC30BC00207047440F44EAC104C100AD
:104B6000E01830BC00EBC25000F078B830B50B460E
:104B7000014600202022012409E021FA02F59D428D
:104B800005D303FA02F5491B04FA02F52844151E61
:104B9000A2F10102F1DC30BD2DE9F05F05460020F5
:104BA00092469B4688460646814640241BE028469E
:104BB00041464746224600F02FF853465A46C01A4F
:104BC000914110D311461846224600F016F82D1ACE
:104BD00067EB01084F4622460120002100F00DF846
:104BE00017EB00094E41201EA4F10104DFDC48460A
:104BF00031462A464346BDE8F09F202A04DB203A8E
:104C000000FA02F1002070479140C2F1200320FA1F
:104C100003F3194390407047202A04DB203A21FA1D
:104C200002F00021704721FA02F3D040C2F12002C5
:104C30009140084319467047202A06DBCB17203ADB
:104C400041FA02F043EAE07306E041FA02F3D04091
:104C5000C2F1200291400843194670470029A8BFBD
:104C60007047401C490008BF20F00100704710B495
:104C7000B0FA80FC00FA0CF050EA010404BF10BC4A
:104C8000704749B1CCF1200421FA04F411FA0CF177
:104C900018BF012121430843A3EB0C01CB1D4FEAB0
:104CA00000614FEA102042BF002010BC704700EBAB
:104CB000C35010440029A4BF10BC7047401C4900D9
:104CC00008BF20F0010010BC704710B5141E73F12E
:104CD000000408DA401C41F1000192185B411A43BC
:104CE00001D120F0010010BD2DE9F04D92469B4608
:104CF00011B1B1FA81F202E0B0FA80F220329046AE
:104D0000FFF77BFF04460F4640EA0A0041EA0B0129
:104D100053465A46084313D0114653EA010019D0AE
:104D2000C8F140025046FFF777FF05460E46504651
:104D300059464246FFF761FF084305D0012004E0D1
:104D400020463946BDE8F08D0020054346EAE0766E
:104D50002C4337430A986305E40AA0EB08000022BD
:104D6000FD0A44EA47540A3002D500200146E9E72B
:104D7000010510196941DDE9084500196941BDE8DF
:104D8000F04DA2E770B521F0004303430CD0C1F30E
:104D90000A550024D5EB040564EB0403D617AD1ABD
:104DA000B34102DB0020014670BD201841EB0251E7
:104DB00070BDC1F30A52C1F3130140F2FF3341F455
:104DC00080119A4202DA00200146704740F23343D4
:104DD0009A42A2F2334202DC5242FFF71DBFFFF7B4
:104DE0000CBF0000064C074D06E0E06840F00103F0
:104DF00094E8070098471034AC42F6D3FBF7C8F9A3
:104E000038720008587200082DE9F04D00231A4648
:104E10001B1A8A4103DB00200146BDE8F08DC1F377
:104E20000A52C1F3130141F480154FF0000BD10772
:104E300002D100186D41521E0027044640F2FF11B6
:104E4000384601EB620A3E468046024600204FF497
:104E50008011FFF7E1FEC2197141BB1846EB01005A
:104E6000B4EB030C75EB000C04D3E41A65EB0005FE
:104E700017460E46241908F101006D41804634287A
:104E8000E3DDF91946EB0600091BA84103D24FF0F8
:104E9000FF32134601E0002213461BEB070046EBEE
:104EA0000A51BDE8F04DFFF710BF00000FB4054BED
:104EB00010B503A9044A029801F04EFA10BC5DF83F
:104EC00014FB0000B92D00086800002003B401980D
:104ED0004100009850EAC12018BF04204A0D18BFB5
:104EE00040F0010040F2FF72B2EB515F08BF40F0AA
:104EF0000200012808BF052002B070470000000032
:104F000070B59B482DED020B2DED068B079D25F00E
:104F10000044A04218DC9748844202DC0AD106987B
:104F200040B19DED060BBDEC068B02B0BDE87040B4
:104F300001F006B9002DCCBF9FED8F0B9FED900BBC
:104F4000BDEC068B02B070BD8F48A04215DD8F48C6
:104F5000A042D8BF4FF0FF3458DD9DED060B51EC59
:104F6000100BFFF7B3FF042808BF01F01DF99DEDFA
:104F7000060BBDEC068B02B070BD9DED060B51EC2F
:104F8000100B01F088FDCDE9060181489FED828B71
:104F9000A0423CDD8248A0421FDD00249FED82AB91
:104FA0009DED060B53EC1A2B51EC100BFFF7BAFBDF
:104FB0009DED060B41EC190B53EC1A2B51EC100B29
:104FC000FFF757FC53EC182BFFF74DFC53EC192B54
:104FD000FFF7C1FCCDE9060149E09DED060B012478
:104FE00053EC182B51EC100BFFF79CFB9DED060BBF
:104FF00041EC190B53EC182B51EC100BFFF733FC61
:1050000053EC192BFFF7A7FCCDE906012FE0684808
:10501000A0421FDD02249FED689B9DED060B53EC23
:10502000192B51EC100BFFF724FC53EC182BFFF756
:1050300079FB9DED060B41EC180B53EC192B51EC51
:10504000100BFFF710FC53EC182BFFF784FCCDE995
:1050500006010CE09DED060B032453EC102B9FED95
:10506000580B51EC100BFFF776FCCDE906019DEDD6
:10507000060B53EC102B51EC100BFFF7FAFB41EC35
:10508000180B53EC182BFFF7F4FB41EC190B4E48AF
:105090000621B0EE490AF0EE690A784400F0BCFF40
:1050A00053EC182B51EC100BFFF7E3FB41EC180B02
:1050B0004648B0EE490AF0EE690A0521784400F04E
:1050C000ABFF53EC192B51EC100BFFF7D2FB41EC6B
:1050D000100B51EC180B53EC102B002C0EDAFFF7D1
:1050E00021FB9DED061B53EC112BFFF7C2FB9DED41
:1050F000061B53EC112BFFF7B9FB35E0FFF712FB52
:105100009DED061B53EC112BFFF7B3FB41EC100B8D
:105110002F48784400EBC40090ED001B51EC100BBD
:1051200053EC112BFFF79FFB9DED061B53EC112B4E
:10513000FFF799FB41EC100B2648784400EBC400C4
:1051400090ED001B51EC100B53EC112BFFF78EFB75
:1051500041EC100B002DA2BFBDEC068B02B070BD60
:1051600051EC100B81F0004141EC100B01E7000005
:10517000000010440000F07F182D4454FB21F93F3B
:10518000182D4454FB21F9BF0000DC3F0000203EF5
:105190000000F33F00000000000000000000F03FAE
:1051A0000000E63F0000000000000000000000409A
:1051B0000080034000000000000000000000F83FF5
:1051C000000000000000F0BF622100001821000074
:1051D000A22000005A20000070B56B4E2DED040B8C
:1051E0002DED028B82B0DDF81CC0DDE905235C42A9
:1051F0002CF000411C4341EAD474049D22F000408D
:10520000B44205D86C422C4340EAD474B4420BD962
:105210009DED061B9DED040B02B0BDEC028B04B0AE
:10522000BDE8704000F096BFACF14054A4F17F643B
:105230001C430BD0022404EAAC7444EAD274054344
:105240009FED538B9FED542B07D015E09DED040B84
:1052500051EC100B01F017FC42E0002C11BF012CA7
:105260009DED040B02B0BDEC028B04BF04B070BD19
:10527000022C38D0032C3BD00B439FED491B9FEDF4
:105280004A0B0AD0B14218D1B04209D121F0804175
:1052900020F08040079105900FE0002A15DA10E019
:1052A000434B7B44002C08BF93ED000B0DD0012C29
:1052B00010D0022C17D0032C1AD0B0421DD1002AD6
:1052C00003DAB0EE410AF0EE610A02B0BDEC028BE7
:1052D00004B070BD93ED000B51EC100B81F0004158
:1052E00041EC100BF1E7B0EE480AF0EE680AECE78B
:1052F000B0EE420AF0EE620AE7E7401A00153C28D9
:10530000C8BF8DED000B19DCBCF1000FBEBF10F162
:105310003C0F9FED290B8DED000B0FDB9DED060B78
:1053200053EC102B9DED040B51EC100BFFF713FB0E
:1053300001F0B1FB01F0A7FBCDE90001002C08BF93
:105340009DED000BC1D0012C10D0022C9FED1C0B49
:1053500053EC102B9DED000B51EC100B0DD0FFF713
:1053600082FA53EC182BFFF77EFAB9E7019880F028
:10537000004001909DED000BA7E7FFF774FA53EC96
:10538000182BFFF773FAABE70000F07F0000000076
:10539000182D4454FB210940182D4454FB2109C009
:1053A000182D4454FB21F9BF182D4454FB21F93F1B
:1053B0008A1F000000000000000000000000000044
:1053C000075C143326A6A13C2DED020B019820F0BA
:1053D000004001909DED000B02B0704700000000FE
:1053E0002DE9F04D2DED040B2DED0C8B96B0DDE984
:1053F0002350259CDDF888A025F0004624F00048C5
:10540000BAF1000F14BF0121002101EB4502FE4952
:1054100053184A1093422AD3002814BF01230023B3
:1054200003EB44030B44F9498B4220D358EA0001B3
:105430009FEDF78B6FD0DFF8E0B35D4503D1BAF194
:10544000000F05D187E0BAF1000F08BF002100D09E
:10545000012101EB450111F5001F08D8002814BFF8
:105460000121002101EB440111F5001F0BD99DED35
:10547000241B9DED220B16B0BDEC0C8B04B0BDE8D7
:10548000F04D00F067BE0027002DBCBFE349884502
:1054900021DAE3498845A8BF02271CDAC3451ADC94
:1054A000E04901EB2851142908DDC1F1340220FA4A
:1054B00002F101FA02F282420DD108E058B9C1F1BD
:1054C000140228FA02F101FA02F2424503D101F076
:1054D0000101C1F1020756EA0A011DD1002C1BDAB5
:1054E000002D18BF022F01D0012F0AD0022000F09A
:1054F0007BFE16B0BDEC0C8B04B0BDE8F04D00F0A7
:1055000007BE022000F070FE00F002FE51EC100B0E
:1055100081F0004183E01EE09FEDC39B9FEDC4AB93
:10552000002872D1BD4880452DD105F1804010F58D
:10553000801008BFBAF1000F0DD0B34515DC002C68
:10554000A1BF9DED240B16B0BDEC0C8B04B0A8BF21
:10555000BDE8F08D12E0B0EE480AF0EE680A16B031
:10556000BDEC0C8B04B0BDE8F08D002C06DA9DED8F
:10557000240B51EC100B81F0004150E0AE48784410
:1055800090ED000BEBE7D8454FD1002C4ADA2EB155
:1055900086423BD1BAF1000F44D126E0BAF1000FA8
:1055A00013D0022000F020FE00F0EEFD8DED020B86
:1055B0009DED220B8DED000B10EE900A039961F327
:1055C0001E0003909DED020BC9E78DED029B9DED42
:1055D000220B19EE901A10EE900A8DED000B61F37C
:1055E0001E0003909DED020BB9E78DED02AB9DED22
:1055F000220B1AEE901A10EE900A8DED000B61F35B
:105600001E0003909DED020BA9E729E00ADA9DED4B
:10561000220B51EC180B53EC102BFFF79CF941ECCB
:10562000100B9CE79DED220B99E7864218DAB4F146
:10563000804F0DD0A4F10050B0F1FF5010D1002DDB
:105640000EDB9DED220B51EC100B01F030FAE6E77A
:105650009DED220B53EC102B51EC100B00F0AEBC67
:105660009DED220B51EC100B01F015FABAF1000F71
:10567000CDE90C0134D19FED720BDEB1A6F1E04013
:10568000B0F17F602CD1002D01DD002C0DDA002D52
:1056900001DD002C1FDB002D16DA002C14DB012F9E
:1056A00008BF9FED690B3FF45AAFB0EE490AF0EE28
:1056B000690A54E7022F18BF002D0CD0012F0AD120
:1056C000002DFFF64CAF06E0002DB8BF002C07DA26
:1056D000012F3FF444AFB0EE4A0AF0EE6A0A3EE70B
:1056E000012000EBE57A5AEA07000CD05848002563
:1056F00080457CDD57495848884514DDB0420DDBB4
:10570000002C19DB2BE0012000F06EFD16B0BDEC83
:105710000C8B04B0BDE8F04D00F026BDB34502DCB3
:10572000002C09DC1BE0864202DA002C17DA03E0C9
:105730005E4527DD002C12DD022000F055FD00F053
:1057400023FD10EE901A19EE900A8DED020B8DEDEF
:10575000009B61F31E0003909DED020BFFE602200B
:1057600000F042FD00F020FD10EE901A18EE900AB5
:105770008DED020B8DED008B61F31E0003909DED0E
:10578000020BECE69DED220B53EC182B51EC100BA9
:10579000FFF769F89FED320BCDE90A0153EC102BAE
:1057A0009DED0A0B51EC100BFFF763F89FED2E1BDC
:1057B00053EC112BFFF75AF89DED0A1B53EC112BFC
:1057C000FFF757F89FED2A1B53EC112BFFF74EF80C
:1057D0009DED0A0B41EC190B53EC102B51EC100B07
:1057E000FFF747F853EC192BFFF743F800E07EE092
:1057F0009FED210B41EC1A0B53EC102B9DED0A0B86
:1058000051EC100B3CE00000FFFF1F00FFFF0F00FA
:10581000000000000000F03F0000F03F0000F07FBB
:105820000000404301FCFFFF000000000000F07F8B
:105830000000000000000000AE1C0000000000009E
:105840000000000000000080000000000000F0FFE9
:105850000000E0410000F043FFFFEF3F00000000C8
:10586000000000000000D03F555555555555D53F17
:10587000000000000000E03F000000604715F73F17
:10588000FEF7F7FF41EC190B9FEDFD0B51EC1A0BE6
:1058900053EC102BFEF7EDFF41EC1A0B9FEDFA0BCA
:1058A00053EC102B9DED0A0B51EC100BFEF7E1FFB2
:1058B00053EC1A2BFEF7D7FF41EC1A0B51EC190BE6
:1058C00053EC1A2BFEF72EFF0690CDE906519DED05
:1058D000060B53EC192B51EC100BFEF7C4FF53ECE5
:1058E0001A2BFEF7C3FF41EC100B00F09FB900200C
:1058F000B6F5801F0EDA9FEDE60B53EC102B9DEDF5
:105900000C0B51EC100BFEF7B4FFCDE90C016FF05E
:1059100034000E4600EB2650A0F2FF38C6F3130009
:10592000DD4940F07F6646F040568842D8BF0024EB
:1059300009DDDA498142C8BF012404DC0024A6F550
:10594000801608F10108D648784400EBC4000D9693
:1059500090ED00BB9DED0C0B53EC1B2B51EC100B91
:10596000FEF781FF9DED0C0B41EC1A0B53EC1B2B4A
:1059700051EC100BFEF7D6FE41EC100B51EC180B5E
:1059800053EC102BFEF7E7FF41EC1C0B51EC1A0B0C
:1059900053EC1C2BFEF76DFF41EC190BC1488DED4C
:1059A000109B7844109590ED000B4FF0005040EAAA
:1059B000660000EB84408DED0A0B00F500200B9093
:1059C0009DED0A0B53EC1B2B51EC100BFEF74BFF1C
:1059D0009DED0C1B53EC112BFEF748FF41EC100B17
:1059E00053EC102B9DED100B51EC100BFEF741FF0B
:1059F0009DED0A0B41EC1B0B53EC102B9DED100B96
:105A000051EC100BFEF735FF53EC1A2BFEF72EFF6F
:105A100053EC1B2BFEF727FF53EC1C2BFEF729FF43
:105A200041EC1B0B53EC192B51EC190BFEF721FF2A
:105A300041EC1A0B9C480621B0EE4A0AF0EE6A0AC5
:105A4000784400F0E9FAB0EE40CAF0EE60CA53ECD8
:105A50001A2B51EC1A0BFEF70CFF53EC1C2BFEF724
:105A600008FF9DED100B41EC1A0B53EC192B51EC78
:105A7000100BFEF757FE53EC1B2BFEF7FAFE53EC10
:105A80001A2BFEF74FFE9DED100B41EC1A0B53EC59
:105A9000102B51EC100BFEF7ECFE41EC1C0B9FEDB4
:105AA00084DB53EC1D2BFEF73DFE53EC1A2BFEF767
:105AB00039FE0A90CDE90A519DED0A0B53EC1D2BDE
:105AC00051EC100BFEF7CFFE53EC1C2BFEF7CBFE78
:105AD00053EC1A2BFEF7CAFE9DED0A0B41EC1C0B92
